{
    "contractName": "Counter",
    "abi": [
        {
            "inputs": [],
            "stateMutability": "nonpayable",
            "type": "constructor"
        },
        {
            "inputs": [],
            "name": "count",
            "outputs": [],
            "stateMutability": "nonpayable",
            "type": "function"
        },
        {
            "inputs": [],
            "name": "get",
            "outputs": [
                {
                    "internalType": "uint256",
                    "name": "",
                    "type": "uint256"
                }
            ],
            "stateMutability": "view",
            "type": "function"
        }
    ],
    "bytecode": "608060405234801561001057600080fd5b506000805560c1806100236000396000f3fe6080604052348015600f57600080fd5b506004361060325760003560e01c806306661abd1460375780636d4ce63c14603f575b600080fd5b603d6054565b005b60005460405190815260200160405180910390f35b60005460609060016065565b600055565b80820180821115608557634e487b7160e01b600052601160045260246000fd5b9291505056fea26469706673582212207bd44cf1b03b4a8a434e091482d6dc1e82ff7b8190fbf8f0d066fb2b7627fac364736f6c63430008130033",
    "sourcePath": "/Users/lzx/Documents/work/zz-guanwang/src/sol/1.sol",
    "compiler": {
        "name": "solc",
        "version": "0.8.19+commit.7dd6d404"
    },
    "functionHashes": {
        "count()": "06661abd",
        "get()": "6d4ce63c"
    },
    "gasEstimates": {
        "creation": {
            "codeDepositCost": "38600",
            "executionCost": "5099",
            "totalCost": "43699"
        },
        "external": {
            "count()": "24403",
            "get()": "2268"
        }
    }
}